:020000040800F2
:100000009811002045010008290300082B0300086F
:1000100033030008370300083B030008000000001A
:100020000000000000000000000000003F03000886
:1000300041030008000000004303000845030008D6
:100040005F0100085F0100085F0100085F01000810
:100050005F0100085F0100085F0100085F01000800
:100060005F0100085F0100085F0100085F010008F0
:100070005F0100085F0100085F0100085F010008E0
:100080005F0100085F0100085F0100085F010008D0
:100090005F0100085F0100085F0100085F010008C0
:1000A0005F0100085F0100085F0100085F010008B0
:1000B0005F0100085F0100085F0100085F010008A0
:1000C0005F0100085F0100085F0100085F01000890
:1000D0005F0100085F0100085F0100085F01000880
:1000E0005F0100085F0100085F0100085F01000870
:1000F0005F0100085F0100085F0100085F01000860
:100100005F0100085F0100085F0100085F0100084F
:100110005F0100085F0100085F0100085F0100083F
:100120005F0100085F0100085F0100085F0100082F
:10013000DFF80CD003F032FD00480047D30100087F
:10014000981100200648804706480047FEE7FEE772
:10015000FEE7FEE7FEE7FEE7FEE7FEE7FEE7FEE777
:10016000331100083101000801B502E00098401E7B
:10017000009000980028F9D108BD1CB5002030A1DE
:1001800030A332A2CDE900101B21012001F0CBFEEB
:100190001CBD1CB500202AA12AA32DA2CDE9001068
:1001A0001F2101F0C0FE1CBD1CB52FA12FA003F024
:1001B00034FA08B9012000E000200446002020A104
:1001C00020A32BA2CDE900102321204601F0ABFE95
:1001D0001CBD70B50025002600F0B6F801F0E6FA67
:1001E00020B12CA003F028FD681E70BD002211462E
:1001F00033A001F098FB044614B94FF0FF30F4E748
:10020000334A34A1204601F0CCFC354A35A12046C2
:1002100001F0C7FC364A37A1204601F0C2FC02209B
:1002200001F018F9284601F049FA01F0C5F8064630
:10023000314633A003F000FD01F0AEFA0020D4E710
:10024000000000006D61696E2E6300003100000047
:1002500043555F4153534552545F455155414C28D6
:10026000312C322900000000656466006162630081
:1002700043555F4153534552545F535452494E477F
:100280005F455155414C2822616263222C226564EE
:10029000662229000A496E697469616C697A617421
:1002A000696F6E206F6620546573742052656769AC
:1002B00073747279206661696C65642E00000000B9
:1002C00073756974655F666F725F7465737400003F
:1002D0007B010008746573745F63617365310000AE
:1002E00093010008746573745F6361736532000085
:1002F000A9010008746573745F636173653300005E
:100300000A546573747320636F6D706C65746564F3
:1003100020776974682072657475726E2076616CDE
:1003200075652025642E0A007047002000E0401CFF
:10033000FDE700BFFEE700BFFEE700BFFEE7704736
:10034000704770477047000000B585B0012144F246
:10035000040000F069FA4FF40070ADF810001820A6
:100360008DF8130003208DF8120004A9754800F0E1
:100370001FFB4FF48060ADF8100004208DF81300CF
:1003800004A9704800F014FB4FF4E1300090002005
:10039000ADF80400ADF80600ADF80800ADF80C00AB
:1003A0000C20ADF80A006946674800F092FC012174
:1003B000654800F01AFD05B000BD70B504460D4655
:1003C000E1B2614800F07EFD00BF5F48008800F0A8
:1003D00080000028F9D0204670BDF0B503460D46D8
:1003E0001646002729460A2E03D00020087028460A
:1003F000F0BD33B9302001F8010B00200870284609
:10040000F6E7002B03DA2D2001F8010B5B4242F2E4
:1004100010720DE093FBF2F404B937B104F130002F
:1004200001F8010B04FB123301270A2092FBF0F2C2
:10043000002AEFDC002008702846D9E70FB470B519
:1004400086B006460CA8019073E00B9800785C28F3
:100450001CD10B98401C0B9000786E2809D0722894
:100460000FD10D21304600F02DFD0B98401C0B9054
:100470000BE00A21304600F025FD0B98401C0B9044
:1004800003E00B98401C0B9000BF4BE00B980078EA
:10049000252840D10B98401C0B900078642818D078
:1004A000732833D1019810C801900BE021783046B1
:1004B00000F008FD00BF4021304600F071FD00282B
:1004C000F9D0641C20780028F0D10B98401C0B90C8
:1004D00020E0019820C801900A2202A92846FFF7CF
:1004E0007CFF02AC0BE02178304600F0EBFC00BF53
:1004F0004021304600F054FD0028F9D0641C2078DB
:100500000028F0D10B98401C0B9003E00B98401C86
:100510000B9000BF06E00B9810F8011B0B903046C3
:1005200000F0D0FC00BF4021304600F039FD00282B
:10053000F9D00B980078002887D106B070BC5DF820
:1005400014FB00000008014000380140DF4800684B
:1005500040F00100DD49086008464068DC49084079
:10056000DA49486008460068DA490840D749086017
:100570000846006820F4802008600846406820F49F
:10058000FE0048604FF41F0088607047CF4909683B
:1005900021F48031CD4A11601146096821F480218F
:1005A0001160B0F5803F03D0B0F5802F0ED106E08A
:1005B000C649096841F48031C44A116007E0C34963
:1005C000096841F4A021C14A116000E000BF00BFEA
:1005D000704710B501460022002300204A11012A6D
:1005E00002D1BA4C236806E0022A02D1B74C236A32
:1005F00001E0B64C636A01F01F02012494401C40E4
:100600000CB1012000E0002010BD38B500200090A2
:100610000024002500BF3120FFF7DBFF05460098CE
:10062000401C00900098B0F5A06F01D0002DF2D0D2
:100630003120FFF7CEFF08B1012400E0002420465E
:1006400038BD01460020A14A106820F0F80040EAB9
:10065000C10010607047A049086070470246002042
:100660009A4B586820F47C1042EA01031843974BD8
:100670005860704798490866704701460020934AC1
:10068000506820F003000843506070478F4840686E
:1006900000F00C007047014600208C4A506820F0A2
:1006A000F00008435060704701460020874A5068B8
:1006B00020F4E06008435060704701460020834A00
:1006C000506820F4605040EAC1005060704729B182
:1006D0007E4A527A02437D4B5A7204E07B4A527A38
:1006E00082437A4B5A7270477B49D8310860704711
:1006F00001460020754A506820F44040084350608D
:1007000070470021714A20321170704A82F820101F
:10071000012802D004280AD104E001216B4A2032CA
:10072000117005E00521694A2032117000E000BF18
:1007300000BF70476949086070476449096A01430E
:10074000624A11627047654944390860704730B5A4
:1007500000210022002400235C4D6D6805F00C018F
:1007600021B1042905D0082923D105E05C4D05609D
:1007700022E05B4D05601FE0544D6D6805F470127A
:10078000524D6D6805F48034022505EB92421CB988
:10079000544D554305600BE04C4D6D6805F4003534
:1007A0001DB1504D5543056002E04D4D5543056068
:1007B00002E04B4D056000BF00BF444D6D6805F081
:1007C000F0010909484D6B5C0568DD4045603F4D0F
:1007D0006D6805F4E061090A434D6B5C4568DD40D6
:1007E00085603A4D6D6805F46051C90A3E4D6B5CF9
:1007F0004568DD40C560354D6D6805F44041890BA5
:100800003A4D6B5CC568B5FBF3F5056130BD29B1A8
:100810002E4A526902432D4B5A6104E02B4A526919
:1008200082432A4B5A61704729B1284A9269024390
:10083000264B9A6104E0254A92698243234B9A61D0
:10084000704729B1214AD2690243204BDA6104E0A2
:100850001E4AD26982431D4BDA61704729B11B4A97
:10086000D2680243194BDA6004E0184AD268824326
:10087000164BDA60704729B1144A12690243134BD0
:100880001A6104E0114A12698243104B1A617047E1
:1008900012494039086070470F49C86470470B49D6
:1008A000C87170470948406A40F080700749486243
:1008B000704701460020054A92680A400AB10120AB
:1008C00000E0002070470149887270470010024024
:1008D0000000FFF8FFFFF6FE0000424280044242A3
:1008E00000127A0000093D000000002010000020E6
:1008F00010B50446CC48844208D101210420FFF7FA
:10090000ADFF00210420FFF7A9FF46E0C74884425D
:1009100008D101210820FFF7A1FF00210820FFF7DF
:100920009DFF3AE0C248844208D101211020FFF720
:1009300095FF00211020FFF791FF2EE0BD48844273
:1009400008D101212020FFF789FF00212020FFF797
:1009500085FF22E0B848844208D101214020FFF7FA
:100960007DFF00214020FFF779FF16E0B348844265
:1009700008D101218020FFF771FF00218020FFF7BF
:100980006DFF0AE0AE48844207D101218015FFF7D0
:1009900065FF0021A015FFF761FF10BD10B5012113
:1009A0000846FFF75BFF00210120FFF757FF10BD4E
:1009B0002DE9F041024600250026002000230024F6
:1009C000002791F803C00CF00F0591F803C00CF05C
:1009D000100CBCF1000F03D091F802C04CEA0505E1
:1009E00091F800C0BCF1000F31D0146800202BE05A
:1009F0004FF0010C0CFA00F3B1F800C00CEA03064A
:100A00009E4220D183004FF00F0C0CFA03F7BC4339
:100A100005FA03FC4CEA040491F803C0BCF1280F6A
:100A200006D14FF0010C0CFA00FCC2F814C00AE029
:100A300091F803C0BCF1480F05D14FF0010C0CFA3E
:100A400000FCC2F810C0401C0828D1D31460B1F8D3
:100A500000C0BCF1FF0F34DD546800202EE000F12F
:100A6000080C4FF0010808FA0CF3B1F800C00CEACA
:100A700003069E4221D183004FF00F0C0CFA03F7BE
:100A8000BC4305FA03FC4CEA040491F803C0BCF132
:100A9000280F05D100F1080C08FA0CF8C2F81480F0
:100AA00091F803C0BCF1480F07D100F1080C4FF0DA
:100AB000010808FA0CF8C2F81080401C0828CED3B0
:100AC0005460BDE8F0814FF6FF7101800221817012
:100AD0000421C17070470246002093680B400BB19F
:100AE000012000E0002070470146886880B270470E
:100AF00002460020D3680B400BB1012000E000202B
:100B000070470146C86880B2704701617047416113
:100B100070470AB1016100E041617047C1607047F0
:100B20004FF480320A438261816182618269826905
:100B3000704702460020434B18684FF680731840F8
:100B400040EA021008433F4B186070473E49C861B5
:100B50007047F0B50A46002300240021002500F06C
:100B60000046B6F1004F02D1364EF16901E0354E34
:100B70007168C0F3034583B200F44016B6F5401F18
:100B800008D121F070612F4E766826F070662D4FE7
:100B90007E6012E000F48016B6F5801F06D10326B1
:100BA00006FA05F4A14341F0706106E0460D3601F6
:100BB00003FA06F6B14341F0706122B1460D3601E9
:100BC00003FA06F6314300F00046B6F1004F02D1B9
:100BD0001C4EF16101E01B4E7160F0BD30B500228A
:100BE0008B071C0F0F2303FA04F2164B08338C10EB
:100BF00053F824309343134C08348D1044F82530B7
:100C000023468C1053F824308C07240F00FA04F488
:100C100023430C4C08348D1044F8253030BD0A496C
:100C2000DC3108607047000000080140000C014002
:100C3000001001400014014000180140001C014058
:100C400000200140000001400000204210B5044691
:100C5000FB48844209D101218803FFF7FFFD0021F1
:100C60004FF48040FFF7FAFD32E0F648844209D1A4
:100C700001214804FFF7FFFD00214FF40030FFF78A
:100C8000FAFD25E0F048844209D101218804FFF7EC
:100C9000F2FD00214FF48020FFF7EDFD18E0EB4856
:100CA000844209D10121C804FFF7E5FD00214FF47A
:100CB0000020FFF7E0FD0BE0E548844208D1012168
:100CC0000805FFF7D8FD00214FF48010FFF7D3FD92
:100CD00010BD2DE9F04786B005460E460024A24619
:100CE00000BFA1460027B08900B100BF2F462C8A63
:100CF0004CF6FF700440F08804432C82AC894EF619
:100D0000F3100440B08831890843718908430443D3
:100D1000AC81AC8A4FF6FF400440B0890443AC82FA
:100D200001A8FFF714FDC648874202D1DDF810A0E4
:100D300001E0DDF80CA0A88900F4004040B10AEB06
:100D4000CA0000EB0A1031684900B0FBF1F807E077
:100D50000AEBCA0000EB0A1031688900B0FBF1F819
:100D60006420B8FBF0F004012009642101FB108924
:100D7000A88900F4004040B1322000EBC900B0FB6C
:100D8000F1F000F00700044308E0322000EB091006
:100D90006421B0FBF1F000F00F0004432C8106B099
:100DA000BDE8F0874FF41651016000218180C180B9
:100DB00001810C21418100218181704710B50246DB
:100DC0000020108A4FF2FF0318400B884C88234301
:100DD0008C882343CC8823431843108210BD002104
:100DE000018041808180C180704721B1828942F4B5
:100DF0000052828104E082894DF6FF731A4082819D
:100E00007047F0B50346002400260025002040F678
:100E10006A17B94200D100BF1846C1F3421401F06D
:100E20001F06012707FA06F5012C01D10C3004E05A
:100E3000022C01D1103000E014301AB107682F43A2
:100E4000076002E00768AF430760F0BD1AB1838A0C
:100E50000B43838202E0838A8B4383827047028A3A
:100E60004FF6F0731A400282028A0A4302827047E8
:100E700082894FF2FF731A40828182890A438281FC
:100E8000704721B1828942F00202828104E08289A6
:100E90004FF6FD731A4082817047028A4FF6DF7366
:100EA0001A400282028A0A430282704721B1028AF2
:100EB00042F48042028204E0028A4BF6FF731A4039
:100EC00002827047C1F30802828070470146888819
:100ED000C0F308007047818941F0010181817047AA
:100EE000028BD2B20283028B42EA01220283704754
:100EF000028B02F47F420283028B0A430283704713
:100F000021B1828A42F02002828204E0828A4FF676
:100F1000DF731A408282704721B1828A42F0100248
:100F2000828204E0828A4FF6EF731A408282704711
:100F300021B1828A42F00802828204E0828A4FF65E
:100F4000F7731A408282704721B1828942F40042CD
:100F5000828103E08289C2F30E028281704721B14F
:100F6000828A42F40062828204E0828A4FF2FF7336
:100F70001A4082827047828A4FF6FB731A4082823F
:100F8000828A0A438282704721B1828A42F0020239
:100F9000828204E0828A4FF6FD731A408282704793
:100FA00002460020B1F5007F00D100BF13880B403E
:100FB0000BB1012000E00020704701F40072B2F58F
:100FC000007F00D100BFCA430280704770B502465F
:100FD000002400230025002040F66A16B14200D10B
:100FE00000BFC1F3421501F01F03012606FA03F307
:100FF000012D02D19689334006E0022D02D1168AD6
:10100000334001E0968A33400C12012606FA04F4BC
:101010001688344013B10CB1012000E0002070BDEF
:1010200010B50022002340F66A14A14200D100BF8F
:101030000A1201249440A3B2DC43048010BD0000D6
:10104000003801400044004000480040004C00408F
:10105000005000400CB50020019000906C480068E2
:1010600040F480306A49086000BF6948006800F4B5
:10107000003000900198401C0190009818B9019828
:10108000B0F5A06FF1D16248006800F4003010B1F3
:101090000120009001E0002000900098012843D139
:1010A0005C48006840F010005A4908600846006833
:1010B00020F0030008600846006840F00200086065
:1010C00053484068524948600846406848600846AE
:1010D000406840F4806048600846406820F47C1016
:1010E00048600846406840F4E810486008460068D8
:1010F00040F08070086000BF4548006800F0007054
:101100000028F9D04248406820F003004049486078
:101110000846406840F00200486000BF3C48406814
:1011200000F00C000828F9D10CBD10B5FFF792FFB4
:1011300010BD10B53648006840F001003449086021
:10114000084640683449084031494860084600680C
:10115000324908402E4908600846006820F4802083
:1011600008600846406820F4FE0048604FF41F0005
:101170008860FFF7DAFF4FF000602949086010BD72
:1011800010B5002100200022214B5B6803F00C0108
:1011900021B1042906D0082928D107E0214B224C8F
:1011A000236027E01F4B204C236023E0184B5B6833
:1011B00003F47010164B5B6803F48032022303EBD8
:1011C000904022B9194B4343174C23600DE0104B5C
:1011D0005B6803F4003323B1144B4343124C236088
:1011E00003E0104B4343104C236003E00D4B0E4CC7
:1011F000236000BF00BF064B5B68C3F303130C4CB6
:10120000E15C094B1B68CB40074C236010BD00001C
:1012100000100240002002400000FFF8FFFFF6FE31
:1012200008ED00E000127A001400002000093D00E3
:101230001800002070B5044600250020954908607C
:101240001CB1204600F0D5FA054601F0D8F8064654
:1012500014B1284600F0CDFA304670BD10B50446F2
:101260008D480078012803D08CA0216802F0E4FCAE
:1012700010BD10B5044688480078012803D092A01C
:10128000216802F0D9FC10BD10B504469BA002F005
:10129000D3FC9B4802F056F89AA002F0CDFC10BD9A
:1012A0002DE9F8430746884615462C463CB97A484E
:1012B0000078022830D194A002F0BEFC2CE07648E1
:1012C000007828B102280AD191A002F0B5FC07E00D
:1012D0003A6891A0D8F8001002F0AEFC00E000BF20
:1012E00000BF6D480078012816D0012612E0E068A2
:1012F00008B1E06800E080A00090D4E9013008B1B6
:10130000A06800E07CA0024631468CA002F094FC6C
:10131000A469761C002CEAD1BDE8F88370B50546B7
:101320000C465D480078022818D15A48006818B168
:1013300058480068A0420CD086A188A0226802F01C
:101340007BFC88A189A02A6802F076FC51480460E1
:1013500004E084A185A02A6802F06EFC70BD10B57F
:1013600000234FF48062194665484FF0FF30002398
:101370004FF48062194681484FF0FF30002000F0A2
:101380007EF945480078012804D07DA284A191A06F
:1013900002F052FC994800F0FAFD994800F0FAFD7D
:1013A000984800F0FDFD984800F0FDFD974800F0DA
:1013B000FDFD00F07AF910BD10B500F017FA48B93C
:1013C00035480078012803D091A19DA002F034FC9B
:1013D0000A2406E0FFF7C3FF041E02D1FFF72AFF2D
:1013E0000446204610BD10B5044600202949086077
:1013F000204601F05FF810BD70B505460DB9142404
:1014000007E0FFF7ACFF041E03D12846FFF7EBFF10
:101410000446204670BD70B504460D4600201D49A7
:1014200008602946204601F089F870BD70B5054670
:101430000E460DB914240BE00EB91E2408E0FFF788
:101440008EFF041E04D131462846FFF7E4FF044610
:10145000204670BD1049087070470F4800787047EB
:1014600038B50446012512E0E06808B1E06800E004
:1014700021A00090D4E9013008B1A06800E01EA0CE
:101480000246294670A002F0D7FBA4696D1C002C0F
:10149000EAD138BD280000202C0000200A57415214
:1014A0004E494E47202D20537569746520636C6545
:1014B000616E7570206661696C656420666F72206C
:1014C000272573272E0000000A5741524E494E47E8
:1014D000202D20537569746520696E697469616C8B
:1014E000697A6174696F6E206661696C65642066F3
:1014F0006F7220272573272E000000000A0A0000C3
:10150000240100200A00000070617373656400000C
:101510004641494C454400000A53756974652025CD
:10152000732C2054657374202573206861642066D1
:1015300061696C757265733A000000000A20202012
:101540002025642E2025733A257520202D20257313
:101550000000000053756974650000000A25733AA5
:101560002025730054657374000000000A202025B4
:10157000733A202573202E2E2E0000002801002013
:10158000687474703A2F2F63756E69742E736F755B
:10159000726365666F7267652E6E65742F0000005A
:1015A00043556E6974202D204120756E6974207436
:1015B000657374696E67206672616D65776F726BB3
:1015C00020666F722043202D2056657273696F6EFE
:1015D000200000000A0A20202020202573405645C4
:1015E0005253494F4E402D4052454C454153454082
:1015F0000A202020202025730A0A00001D1300085D
:10160000A112000889120008731200085D12000878
:10161000464154414C204552524F52202D20546592
:101620007374207265676973747279206973206EB0
:101630006F7420696E697469616C697A65642E00E3
:101640000A0A25730A0000000A202025642E20259E
:10165000733A257520202D202573000001462C2289
:10166000002902DA184800687047914203DD1648E5
:1016700050F82200F8E7144850F82100F4E770B55C
:1016800004467CB11148007802280BD12046FFF7B0
:10169000E5FF05462A4621460DA002F0CDFA204678
:1016A00001F097FF1248047070BD11480078704730
:1016B00010B50F480078FFF7D1FF10BD034908703F
:1016C0007047024800787047340000203100002045
:1016D0000A41626F7274696E672064756520746F69
:1016E000206572726F72202325643A2025730A00E8
:1016F0003000002010B50C2002F062FF04461CB13F
:101700000020A06020606060204610BD10B5044637
:10171000206810B1206802F02BFF0020206010BD6F
:1017200070B5044600250026A56807E02E69284606
:10173000FFF7ECFF284602F01BFF3546002DF5D1E0
:10174000206810B1206802F013FF00202060A06024
:10175000E06170BD70B5044600250026A56807E06D
:101760002E6A2846FFF7DCFF284602F001FF3546C7
:10177000002DF5D10020A0602060606070BD10B524
:101780000446206810B12068FFF7E4FF206802F0EB
:10179000EFFE0020206010BD10B50020FFF76FFFA6
:1017A000FB48FFF7ECFF00F0A7FF10BD10B50021CC
:1017B0000C460846FFF763FFF548006808B1FFF7DD
:1017C000EBFFFFF797FFF24908600846006820B971
:1017D00001210C460846FFF752FF204610BDEC4899
:1017E000006808B1012070470020FCE7E848006865
:1017F000704770B50446E64805680020FFF73FFFD4
:10180000E3480460284670BD0022826800230B6212
:1018100003685B1C03601AB9816000234B6207E018
:1018200001E0126A00BF136A002BFAD111624A620A
:10183000704770B505460E460024AC6809E0206884
:1018400030B13046216801F053FE08B9012070BD67
:10185000246A002CF3D10020F9E72DE9F047054672
:101860000E4617469846DDF82090302002F0A8FE7C
:10187000044604B3284601F0C9FE00F1010A5046AF
:1018800002F09EFE2060206888B12946206801F0A1
:10189000D2FE01206060E6602761C4F81480C4F8BD
:1018A00018900020A06020626062E06103E02046A2
:1018B00002F05EFE00242046BDE8F0872DE9F84FD7
:1018C00004460E4617469846DDF828900025AA469D
:1018D000AF48006810B94FF00A0A1EE014B94FF083
:1018E000150A1AE043463A4631462046CDF80090A4
:1018F000FFF7B3FF054615B94FF0010A0DE0214689
:10190000A3480068FFF795FF012801D14FF0180A9E
:1019100029469F480068FFF777FF5046FFF7AFFE64
:101920002846BDE8F88FF8B504460D461646002057
:1019300003463246294600902046FFF7BFFFF8BD18
:1019400070B504460D4600260CB9142600E065600B
:101950003046FFF794FE304670BD2DE9F041044655
:101960000D4600260CB9142611E00DB915260EE01F
:10197000206802F0FDFD284601F048FE471C38466D
:1019800002F01EFE20602946206801F054FE304619
:10199000FFF775FE3046BDE8F08170B504460D4690
:1019A00000260CB9142600E0E5603046FFF767FE1C
:1019B000304670BD70B504460D4600260CB914269D
:1019C00000E025613046FFF75AFE304670BD2DE934
:1019D000F04105460E4600270024B46809E020685F
:1019E00030B12946206801F083FD08B9274602E09E
:1019F000246A002CF3D100BF3846BDE8F08170B5F1
:101A00000446002500266248006808B90A2608E056
:101A10000CB9152605E05E4801682046FFF7D7FFA0
:101A200005463046FFF72BFE284670BD10B502462E
:101A30000B4600206AB1564C24682468944208D3AF
:101A4000534C2468A068012101E0006A491C9142BE
:101A5000FBD310BD70B50446002500264C48006835
:101A600008B90A2605E04A4801682046FFF7DEFF6C
:101A700005463046FFF703FE284670BD2DE9F041CC
:101A800005460026002700244148006808B90A27B7
:101A90000EE00DB914270BE03D480068846801266C
:101AA00001E0761C246A0CB1AC42FAD104B90026DC
:101AB0003846FFF7E4FD3046BDE8F0812DE9F041FE
:101AC00005460026002700243148006808B90A2787
:101AD00012E00DB915270FE02D4800688468012633
:101AE00001E0761C246A2CB12946206801F095FD9E
:101AF0000028F6D104B900263846FFF7C0FD30466D
:101B0000BDE8F08100228268C3695B1CC3611AB919
:101B1000816000234B6107E001E0126900BF136997
:101B2000002BFAD111614A61704770B505460E4627
:101B30000024AC6809E0206830B13046216801F02B
:101B4000D7FC08B9012070BD2469002CF3D1002016
:101B5000F9E72DE9F04105460E46182002F030FD68
:101B60000446DCB1284601F051FD471C384602F01E
:101B700027FD2060206868B12946206801F05BFDE0
:101B800001206060A6600020E0602061606105E0E7
:101B9000E8000020204602F0EBFC00242046BDE8CF
:101BA000F0812DE9F04107460C4615460026B04667
:101BB000AB48006810B94FF00A0827E017B94FF09A
:101BC000140823E014B94FF01F081FE015B94FF0B7
:101BD0001E081BE029462046FFF7BBFF064616B944
:101BE0004FF0010812E09E4800684068401C9C4984
:101BF0000968486021463846FFF797FF012801D160
:101C00004FF0200831463846FFF77CFF4046FFF78B
:101C100036FD3046BDE8F08170B504460D4600261D
:101C20000CB91E2600E065603046FFF728FD3046FF
:101C300070BD2DE9F04104460D4600260CB91E2664
:101C400011E00DB91F260EE0206802F091FC284635
:101C500001F0DCFC471C384602F0B2FC206029464B
:101C6000206801F0E8FC3046FFF709FD3046BDE88A
:101C7000F08170B504460D46002604B10DB91E264C
:101C800000E0A5603046FFF7FAFC304670BD2DE954
:101C9000F04105460E4600270024B46809E020689C
:101CA00030B12946206801F023FC08B9274602E03C
:101CB0002469002CF3D100BF3846BDE8F0812DE93E
:101CC000F04104460D46002600276548006808B923
:101CD0000A270AE00CB9142707E00DB9152704E01C
:101CE00021462846FFF7D3FF06463846FFF7C7FCD4
:101CF0003046BDE8F08110B5024600204AB1CC69FB
:101D0000944206D38868012301E000695B1C93427A
:101D1000FBD310BD2DE9F04104460D4600260027F7
:101D20004F48006808B90A2707E00CB9142704E0F7
:101D300021462846FFF7DFFF06463846FFF79FFC9F
:101D40003046BDE8F0812DE9F04105460E460027FA
:101D5000B84600244248006810B94FF00A0811E064
:101D600015B94FF014080DE016B94FF01E0809E040
:101D7000AC68012701E07F1C24690CB1B442FAD1A0
:101D800004B900274046FFF77AFC3846BDE8F081E9
:101D90002DE9F04105460E460027B846002430489C
:101DA000006810B94FF00A0815E015B94FF0140893
:101DB00011E016B94FF01F080DE0AC68012701E0F3
:101DC0007F1C24692CB13146206801F026FC0028D4
:101DD000F6D104B900274046FFF751FC3846BDE86C
:101DE000F0810FB42DE9FC4100240025002709A84B
:101DF0000190002627E0019810C8019014B31EE05E
:101E00002069009094E80F00FFF758FD071E12D0DC
:101E100065690CE03846D5E90012FFF7C2FE28B923
:101E2000FFF743FCBDE8FC015DF814FB08352868AA
:101E30000028EFD102E0FFF738FCF3E71834206800
:101E40000028DDD1761C08988642D4DBFFF72DFCF4
:101E5000E8E710B5044621460120FFF7C2FF10BD98
:101E6000E80000202DE9F84F07460E4692469B46B3
:101E7000DDE90A8900240025202002F0A1FB0446A8
:101E80000CB9BDE8F88F0020A060E060B9F1000F48
:101E900011D0484601F0BAFB401C009002F090FBC4
:101EA000A060A06818B9204602F062FBE9E7494645
:101EB000A06801F0C0FBB8F1000F16D0404601F059
:101EC000A5FB401C009002F07BFBE060E06840B99D
:101ED000A06810B1A06802F04BFB204602F048FB5E
:101EE000CFE74146E06801F0A6FB84F800A0C4F803
:101EF00004B00D9820610C9860610020A061E06141
:101F00003D683DB100E0AD69A8690028FBD1AC6136
:101F1000E56100E03C6016B1706D401C7065FE48E4
:101F2000046000BFADE72DE9FF4704460D461646A5
:101F30001F46DDE90C98F948C06C401CF749C8649D
:101F4000F4B90846006D401C0865F5480068F5497D
:101F500009682B460522CDE90067CDE90210EF495B
:101F6000F148FFF77FFFB8F1010F09D1EC48006895
:101F7000C06828B1EA490968C868012101F094FCE9
:101F8000204604B0BDE8F087E84908607047E8499A
:101F900008607047E74908607047E7490860704784
:101FA000E64908607047E64908607047E5490860FF
:101FB0007047DE4800687047DD4800687047DD48BC
:101FC00000687047DC4800687047DC48006870476C
:101FD000DB4800687047DB4800687047CF48406BBB
:101FE0007047CE48806B7047CC48C06B7047CB4879
:101FF000006C7047C948406C7047C848806C704797
:10200000C648C06C7047C548C06CC449096D401AC9
:102010007047C248006D7047C048406D70472DE959
:10202000F047C9480068012816D1C848006801F087
:1020300021FC04460D464FF0FF30824601F01AFCA9
:10204000064622462B4601F0A0FB80460022C04BEC
:1020500001F0A1FBBDE8F087B049D1E91601F9E72D
:10206000B14800687047AD48704770B5AEB00446DF
:102070000D46A94800682C900026686D2D90A84850
:102080000460AB48006830B1A6480168A448006805
:10209000A74A126890476068E0B1A24800684069AA
:1020A00018B1A04909684869804704A8E06001F0B8
:1020B000EEFB18B9A06808B1A0688047994800688D
:1020C000806918B19749096888698047286C401C65
:1020D000286418E09148806C401C904988649D48B1
:1020E000006878B18E4800688E4909689AA29EA35C
:1020F000CDE90032CDE902100023042287498A4845
:10210000FFF7B0FE2226686D2D9988420CD9686CC5
:10211000401C68642C9818B12C9880692C9005E0BC
:10212000814800682C9001E000202C9081480068D4
:1021300038B17C482C9A0168794800687D4B1B684F
:1021400098470020E0607649086030462EB070BDA8
:102150002DE9FF4704460D4600266F48D0F8008061
:102160000027D5F854A000206D4908606D48046030
:102170006E48006818B120466C4909688847606855
:1021800000287AD0E06800281BD0E0688047C0B102
:102190006B48006818B12046694909688847A86BF0
:1021A000401CA86300206CA173A20346CDE9011472
:1021B00000920390022259495B48FFF753FE16270D
:1021C00071E0A6682AE0706850B129463046FFF7F2
:1021D0004CFF81460FB9484600E03846074614E0F8
:1021E0004E48806C401C4D4988645A48006860B174
:1021F00059A05DA100230422CDE90246CDE90010DB
:1022000046494948FFF72EFE222736691FB9A06AC2
:10221000401CA06202E0E06A401CE0622EB1002F88
:10222000D1D0FFF74EFA0028CDD0686B401C686310
:102230002069002837D020698047002833D04148E2
:10224000006818B120463F4909688847A86B401CC0
:10225000A863002040A153A20346CDE901140092D7
:10226000039003222D493048FFF7FCFD17B91720D2
:1022700001E002E03846074615E02848C06B401CE4
:102280002649C8633348006868B1002032A14BA2D8
:102290000346CDE901140092039001221F49224810
:1022A000FFF7E0FD1927686D504509D9B8F1000F17
:1022B00002D0D8F8188005E01B48D0F8008001E073
:1022C0004FF000081C48006820B1414620461A4AD9
:1022D00012689047002013490860384604B0BDE8F2
:1022E000F08770B50546002400262C680EE0E068F3
:1022F00010B1E06802F03CF9A06810B1A06802F0EB
:1023000037F9A669204602F033F93446002CEED1A5
:102310000020286070BD0000FC0000203801002073
:10232000F4000020F0000020F80000200801002048
:102330000C010020100100201401002018010020D1
:102340001C01002020010020EC00002004010020DE
:10235000000059400001002043556E6974205379F4
:102360007374656D000000005465737420696E61BC
:102370006374697665000000537569746520496E61
:10238000697469616C697A6174696F6E20666169EC
:102390006C6564202D20537569746520536B6970DA
:1023A00070656400537569746520636C65616E7552
:1023B00070206661696C65642E0000005375697455
:1023C0006520696E616374697665000070B50446C6
:1023D0000D4600206063A063E06320646064A06435
:1023E000E064206560650021A165E165286810B1A1
:1023F0002846FFF776FF0020FE49086070BD2DE9F2
:10240000FF5FFFF7F3F982460024A146FA49FB4833
:10241000FFF7DCFFBAF1000F02D14FF00A0942E0EA
:102420000120F74908604FF0FF30F6490860DAF8FC
:1024300008400CE0F1492046FFF78AFE8346B9F1D7
:10244000000F01D1584600E048468146246A34B165
:10245000B9F1000FEED0FFF734F90028EAD00020E0
:10246000E7490860E748006801F004FA0746884633
:102470004FF0FF30019001F0FDF93A464346CDE9B7
:10248000020101F082F905460022DF4B01F083F9D9
:10249000DA4AC2E91601DD48006820B1D648006872
:1024A000DA49096888474846FFF7E9F8484604B022
:1024B000BDE8F09F2DE9F84F82464FF0000BCE4962
:1024C000CE48FFF783FFBAF1000F02D14FF0140B93
:1024D0002EE00120CA4908604FF0FF30C94908606A
:1024E000C6495046FFF734FE83460020C4490860C1
:1024F000C448006801F0BEF906460F464FF0FF30B1
:10250000009001F0B7F9804632463B4601F03DF9B4
:1025100004460022BC4B01F03EF9B84AC2E916015C
:10252000BA48006820B1B4480068B84909688847CB
:102530005846FFF7A4F85846BDE8F88F2DE9FF5F2D
:10254000044689464FF0000AAB49AC48FFF73EFF0E
:1025500014B94FF0140AC8E0B9F1000F02D14FF0DE
:102560001E0AC2E06068C8B9A448C06B401CA349F9
:10257000C863A748006870B10020AFF22421AFF211
:10258000C4120346CDE901140092039001229B4935
:102590009948FFF767FC4FF0190AA6E0D9F8000048
:1025A00028B12146D9F80000FFF771FB10B94FF0B0
:1025B000210A9AE00120924908604FF0FF309149CA
:1025C0000860002093490860934804600020A062DE
:1025D000E0629248006818B120469049096888472F
:1025E000E06800B3E0688047E8B18D48006818B142
:1025F00020468B49096888478048806B401C7F498A
:1026000088630020AFF2B021AFF294220346CDE9F7
:10261000011400920390022278497748FFF722FCC8
:102620004FF0160A32E075494846FFF71EFD834613
:10263000BAF1000F01D1584600E0504682462069A9
:1026400020B32069804708B37648006818B1204657
:102650007449096888476948806B401C67498863EA
:102660000020AFF20C31AFF2C4220346CDE90114D1
:1026700000920390032261495F48FFF7F3FBBAF130
:10268000000F01D1172000E05046824666480068DE
:1026900020B100212046644A126890470020584922
:1026A00008605848006801F0E5F8074688464FF092
:1026B000FF30019001F0DEF83A464346CDE90201D1
:1026C00001F063F8054600224F4B01F064F84B4AD5
:1026D000C2E916014D48006820B1474800684B49DF
:1026E0000968884700204C4908605046FEF7C7FF3C
:1026F000504604B0BDE8F09F10B53F493F48FFF792
:1027000065FE10BD44480068704742480068704745
:102710003B48006870473E49086070473C48006885
:10272000704730B5CFB035484E90FFF75FF84D9009
:102730000C2044900520072800D300E0072006283D
:1027400001D8062004E00520072800D300E0072078
:10275000042801D804200DE00520072800D300E05C
:102760000720062801D8062004E00520072800D30A
:1027700000E00720062801D806201FE005200728D2
:1027800000D300E00720062801D8062004E0052039
:10279000072800D300E00720042801D804200DE01A
:1027A0000520072800D300E00720062801D80620CE
:1027B00004E00520072800D300E00720401C4590D6
:1027C0004D980068419000F0EBFE04464D9840683B
:1027D000419000F0E5FE05464E98C06C419000F037
:1027E000DFFE854222D34D984068419000F0D8FE2C
:1027F00021E00000FC000020F8000020380100204B
:10280000EC000020040100200000594018010020C5
:1028100000010020F4000020F0000020080100204A
:102820001C01002020010020140100204E98C06CE3
:10283000419000F0B5FE844205D34D980068419068
:1028400000F0AEFE17E04D984068419000F0A8FE01
:1028500004464E98C06C419000F0A2FE844205D31D
:102860004D984068419000F09BFE04E04E98C06C8B
:10287000419000F095FE052801D805203DE04D98D7
:102880000068419000F08CFE04464D9840684190ED
:1028900000F086FE05464E98C06C419000F080FE28
:1028A000854205D34D984068419000F079FE04E0E0
:1028B0004E98C06C419000F073FE844205D34D9851
:1028C0000068419000F06CFE17E04D984068419020
:1028D00000F066FE04464E98C06C419000F060FE29
:1028E000844205D34D984068419000F059FE04E0C1
:1028F0004E98C06C419000F053FE062801D8062087
:102900007FE04D980068419000F04AFE04464D98E3
:102910004068419000F044FE05464E98C06C4190DE
:1029200000F03EFE854205D34D984068419000F08E
:1029300037FE04E04E98C06C419000F031FE8442B6
:1029400005D34D980068419000F02AFE17E04D989D
:102950004068419000F024FE04464E98C06C4190BF
:1029600000F01EFE844205D34D984068419000F06F
:1029700017FE04E04E98C06C419000F011FE05284F
:1029800001D805203DE04D980068419000F008FE18
:1029900004464D984068419000F002FE05464E986E
:1029A000C06C419000F0FCFD854205D34D98406815
:1029B000419000F0F5FD04E04E98C06C419000F0AD
:1029C000EFFD844205D34D980068419000F0E8FD8A
:1029D00017E04D984068419000F0E2FD04464E98A3
:1029E000C06C419000F0DCFD844205D34D984068F6
:1029F000419000F0D5FD04E04E98C06C419000F08D
:102A0000CFFD401C46904E98406B419000F0C8FDB1
:102A100004464E98006C419000F0C2FD05464E9869
:102A2000C06C419000F0BCFD854205D34E98006C0F
:102A3000419000F0B5FD04E04E98C06C419000F06C
:102A4000AFFD844205D34E98406B419000F0A8FD45
:102A500017E04E98006C419000F0A2FD04464E989D
:102A6000C06C419000F09CFD844205D34E98006CF0
:102A7000419000F095FD04E04E98C06C419000F04C
:102A80008FFD032801D803203DE04E98406B419014
:102A900000F086FD04464E98006C419000F080FDE9
:102AA00005464E98C06C419000F07AFD854205D3F2
:102AB0004E98006C419000F073FD04E04E98C06C9D
:102AC000419000F06DFD844205D34E98406B4190DB
:102AD00000F066FD17E04E98006C419000F060FD3C
:102AE00004464E98C06C419000F05AFD844205D3D4
:102AF0004E98006C419000F053FD04E04E98C06C7D
:102B0000419000F04DFD062801D806207FE04E9848
:102B1000406B419000F044FD04464E98006C41909B
:102B200000F03EFD05464E98C06C419000F038FD27
:102B3000854205D34E98006C419000F031FD04E0D1
:102B40004E98C06C419000F02BFD844205D34E9806
:102B5000406B419000F024FD17E04E98006C4190CE
:102B600000F01EFD04464E98C06C419000F018FD28
:102B7000844205D34E98006C419000F011FD04E0B2
:102B80004E98C06C419000F00BFD032801D8032043
:102B90003DE04E98406B419000F002FD04464E9897
:102BA000006C419000F0FCFC05464E98C06C4190D2
:102BB00000F0F6FC854205D34E98006C419000F081
:102BC000EFFC04E04E98C06C419000F0E9FC8442B8
:102BD00005D34E98406B419000F0E2FC17E04E9810
:102BE000006C419000F0DCFC04464E98C06C4190B3
:102BF00000F0D6FC844205D34E98006C419000F062
:102C0000CFFC04E04E98C06C419000F0C9FC401C21
:102C100047904E98D0E91010081A419000F0C0FC7F
:102C200004464E98D0E91310081A419000F0B8FC01
:102C3000844207D34E98D0E91010081A419000F052
:102C4000AFFC06E04E98D0E91310081A419000F04E
:102C5000A7FC032801D803201FE04E98D0E91010EC
:102C6000081A419000F09CFC04464E98D0E91310DD
:102C7000081A419000F094FC844207D34E98D0E9A2
:102C80001010081A419000F08BFC06E04E98D0E935
:102C90001310081A419000F083FC062801D8062082
:102CA00043E04E98D0E91010081A419000F078FCEB
:102CB00004464E98D0E91310081A419000F070FCB9
:102CC000844207D34E98D0E91010081A419000F0C2
:102CD00067FC06E04E98D0E91310081A419000F006
:102CE0005FFC032801D803201FE04E98D0E91010A4
:102CF000081A419000F054FC04464E98D0E9131095
:102D0000081A419000F04CFC844207D34E98D0E959
:102D10001010081A419000F043FC06E04E98D0E9EC
:102D20001310081A419000F03BFC062801D8062039
:102D30008BE04E98D0E91010081A419000F030FC5A
:102D400004464E98D0E91310081A419000F028FC70
:102D5000844207D34E98D0E91010081A419000F031
:102D60001FFC06E04E98D0E91310081A419000F0BD
:102D700017FC032801D803201FE04E98D0E910105B
:102D8000081A419000F00CFC04464E98D0E913104C
:102D9000081A419000F004FC844207D34E98D0E911
:102DA0001010081A419000F0FBFB06E04E98D0E9A5
:102DB0001310081A419000F0F3FB062801D80620F2
:102DC00043E04E98D0E91010081A419000F0E8FB5B
:102DD00004464E98D0E91310081A419000F0E0FB29
:102DE000844207D34E98D0E91010081A419000F0A1
:102DF000D7FB06E04E98D0E91310081A419000F076
:102E0000CFFB032801D803201FE04E98D0E9101013
:102E1000081A419000F0C4FB04464E98D0E9131004
:102E2000081A419000F0BCFB844207D34E98D0E9C9
:102E30001010081A419000F0B3FB06E04E98D0E95C
:102E40001310081A419000F0ABFB401C48904E98BC
:102E5000806B419000F0A4FB04464E98406C41907A
:102E600000F09EFB05464E98006D419000F098FBE7
:102E7000854205D34E98406C419000F091FB04E0F0
:102E80004E98006D419000F08BFB844205D34E9824
:102E9000806B419000F084FB17E04E98406C4190AD
:102EA00000F07EFB04464E98006D419000F078FBE8
:102EB000844205D34E98406C419000F071FB04E0D1
:102EC0004E98006D419000F06BFB062801D806205B
:102ED0003DE04E98806B419000F062FB04464E98B6
:102EE000406C419000F05CFB05464E98006D4190AF
:102EF00000F056FB854205D34E98406C419000F09F
:102F00004FFB04E04E98006D419000F049FB844275
:102F100005D34E98806B419000F042FB17E04E982D
:102F2000406C419000F03CFB04464E98006D41908F
:102F300000F036FB844205D34E98406C419000F07F
:102F40002FFB04E04E98006D419000F029FB06280D
:102F500001D806207FE04E98806B419000F020FB66
:102F600004464E98406C419000F01AFB05464E987E
:102F7000006D419000F014FB854205D34E98406CE3
:102F8000419000F00DFB04E04E98006D419000F080
:102F900007FB844205D34E98806B419000F000FB04
:102FA00017E04E98406C419000F0FAFA04464E98B3
:102FB000006D419000F0F4FA844205D34E98406CC5
:102FC000419000F0EDFA04E04E98006D419000F061
:102FD000E7FA062801D806203DE04E98806B419024
:102FE00000F0DEFA04464E98406C419000F0D8FAAA
:102FF00005464E98006D419000F0D2FA854205D307
:103000004E98406C419000F0CBFA04E04E98006D71
:10301000419000F0C5FA844205D34E98806B4190F0
:1030200000F0BEFA17E04E98406C419000F0B8FAFC
:1030300004464E98006D419000F0B2FA844205D3E8
:103040004E98406C419000F0ABFA04E04E98006D51
:10305000419000F0A5FA401C49904E98C06B4190F9
:1030600000F09EFA04464E98806C419000F098FA69
:10307000032805D34E98806C419000F091FA00E04F
:103080000320844205D34E98C06B419000F088FA2B
:103090000DE04E98806C419000F082FA032805D331
:1030A0004E98806C419000F07BFA00E003200828E5
:1030B00001D8082029E04E98C06B419000F070FACA
:1030C00004464E98806C419000F06AFA032805D3BC
:1030D0004E98806C419000F063FA00E00320844237
:1030E00005D34E98C06B419000F05AFA0DE04E980F
:1030F000806C419000F054FA032805D34E98806C00
:10310000419000F04DFA00E00320062801D8062087
:1031100057E04E98C06B419000F042FA04464E983A
:10312000806C419000F03CFA032805D34E98806CE7
:10313000419000F035FA00E00320844205D34E9818
:10314000C06B419000F02CFA0DE04E98806C4190DD
:1031500000F026FA032805D34E98806C419000F0C9
:103160001FFA00E00320082801D8082029E04E9823
:10317000C06B419000F014FA04464E98806C419068
:1031800000F00EFA032805D34E98806C419000F0B1
:1031900007FA00E00320844205D34E98C06B4190AB
:1031A00000F0FEF90DE04E98806C419000F0F8F9C7
:1031B000032805D34E98806C419000F0F1F900E0AF
:1031C0000320401C4A900F204B9008204C904599BA
:1031D0004498084446990844479908444899084443
:1031E000499908444A99084480000D304B99084495
:1031F0004C990844401C4390439801F0E1F94290F7
:103200004298E8B3FEF70BFF4191409056A14C98CD
:10321000CDE93C014199409856A2CDE93A0159A324
:103220004A994B98CDE93513CDE937024E98006D98
:103230004E9A4999D2E913329A1A489BCDE9313214
:10324000CDE933104E98C06C4E9A4799D26C469B8C
:10325000CDE92D32CDE92F104BA24DA344994598CD
:10326000CDE92913CDE92B024E98806C4E9A4A99EC
:10327000526C499BCDE92532CDE927104E9800E0EC
:103280005DE0D0E91010091A4E9A4898126C479BDD
:10329000CDE92132CDE923014D9840683DA3459AFF
:1032A0004699CDE91D23CDE91F1039A344994E98C5
:1032B000C06B4A9A1AAC0BC419924E98806B31A31A
:1032C000489A4999CDE91523CDE917104E98426BDC
:1032D0004D9947980968469BCDE91131CDE9130214
:1032E0002EA22BA344994598CDE90D13CDE90F02E9
:1032F0002CA22FA349994A98CDE90913CDE90B02D5
:103300002DA22FA348994798CDE906310892059040
:103310002CA22EA345994698CDE90113CDE90302CD
:103320002CA00090449803462E4A3F90439942981F
:1033300000F092FC00224398411E42984254429869
:103340004FB030BD70B50546FFF7EBF904463CB110
:10335000214625A000F070FC204601F009F902E0AA
:1033600022A000F069FC70BD207365636F6E64730A
:1033700000000000456C61707365642074696D65C0
:10338000203D20006E2F61006173736572747300BD
:103390002000000074657374730000007375697415
:1033A00065730000496E6163746976650000000012
:1033B0004661696C65640000506173736564000068
:1033C00052616E00546F74616C0000005479706536
:1033D0000000000052756E2053756D6D6172793A70
:1033E000000000000C49000825730000416E2065B4
:1033F00072726F72206F636375727265642070728F
:10340000696E74696E67207468652072756E2072CB
:103410006573756C74732E0002460323002100E06F
:10342000491C994204DA674810F831009042F7D1FC
:10343000994201DA084670474FF0FF30FBE72DE96B
:10344000F04706460C4615464FF00009A246002DEF
:1034500031D023E03078FFF7DFFF8046B8F1FF3F3F
:1034600017D0584901EBC801486800F0CFF807466B
:10347000A8420CD2534800EBC8003A4641682046A7
:1034800000F0B2F83C44ED1B09F1010905E000250C
:1034900008E0307804F8010B6D1E761C15B1307809
:1034A0000028D7D100BF25B900208AF80000814646
:1034B00001E0002020704846BDE8F08770B5044662
:1034C000002510E02078FFF7A7FF0646B0F1FF3F88
:1034D00007D03C4901EBC601486800F097F8054465
:1034E00000E06D1C641C20780028EBD1284670BDDC
:1034F00070B504460D4601E0641C6D1C207850B187
:10350000287840B1207800F069F80646287800F065
:1035100065F88642F0D020782978401A70BD70B5E1
:1035200005462E46284600F071F8044600E0641E69
:1035300054B100F04FF80068311911F8011C405CDB
:1035400000F001000028F2D10020305570BD2DE9B7
:10355000F041054600272C462E460AE000F03AF8D6
:1035600000682178405C00F0010000B904E0641CB0
:103570007F1C20780028F1D100BF01E0641C761C7C
:103580001FB1207830700028F8D1BDE8F08110B567
:1035900004462046FFF7DBFF2046FFF7C0FF10BDC3
:1035A00010B58AB00446234607A2212101A800F0E5
:1035B00053FB00208DF8240001A800F027F80AB082
:1035C00010BD00002C4600082564000001460020C4
:1035D0007047704700487047C8460008A0F1610175
:1035E000192900D82038704740EA01039B0703D00F
:1035F00009E008C9121F08C0042AFAD203E011F832
:10360000013B00F8013B521EF9D27047421C10F8F2
:10361000011B0029FBD1801A704710B5002200E081
:10362000521C835C8C5CA34201D1002BF8D1D8B230
:10363000E1B2401A10BD034611F8012B00F8012B2E
:10364000002AF9D1184670472DE9FE4F804681EADD
:103650000300C00F0C46009021F0004123F000450C
:10366000B8EB0200A94105D24046214690461C46CF
:103670000B46024623F00040104347D0270DC7F306
:103680000A00C3F30A510290401A019040286BDAF5
:10369000C3F3130040F4801B0098924620B100232E
:1036A000D2EB030A63EB0B0B01985946C0F14002C1
:1036B000504600F052F906460D4650465946019ACA
:1036C00000F05AF910EB08006141002487EA11521A
:1036D00084EAE7731A4340D0009A62B3019A012A40
:1036E0004FEA075215DC001B61EB02014FF000426C
:1036F00002EA0752CDE90042001C41F58011324632
:103700002B4600F05AF903B0BDE8F08F4046214641
:10371000F9E7001B61EB0201001C41F58013001862
:103720005B412018A2F5001747EB030140EAD57072
:10373000B6196D4111E06D084FEA360645EAC075CD
:103740004FEA0752001B61EB0201001C41F580119A
:1037500049084FEA30000019514132462B4603B068
:10376000BDE8F04F00F01AB9009801224000002394
:10377000D0EB020263EBE073009821464FEAE0745D
:10378000B8EB000061EB0401E9E783F000435BE77D
:1037900081F0004158E72DE9F04D81EA030404F07F
:1037A000004B21F0004514464FF0000A23F0004181
:1037B00050EA050220D054EA01021DD0C5F30A5791
:1037C0000246C5F31303C1F31300C1F30A5640F4D4
:1037D000801543F48013A7EB0608101BD64608F2A9
:1037E000FD3873EB050002D308F1010801E09218DF
:1037F0005B41B8F1000F03DA00200146BDE8F08D0F
:1038000000204FF48011064684460EE0171B73EB30
:10381000050705D3121B63EB050306434CEA010CB5
:1038200049084FEA300092185B4150EA0107EDD198
:1038300052EA030012D082EA040083EA0501084339
:1038400005D0101BAB4106D20122002306E0002266
:103850004FF0004302E06FF0010253101AEB060034
:103860004CEB085110EB0A0041EB0B01BDE8F04DA9
:1038700000F094B80EB540F2334102910021CDE939
:1038800000110A460B4600F098F803B000BDA0E80E
:10389000004FF0C040F804DB01B5AFF30080BDE895
:1038A000024001C10020704700F12C080C4658F876
:1038B000040DAFF3008058F8040D8546200008BFC2
:1038C000012038E9F00018E9004F704730B50B4689
:1038D000014600202022012409E021FA02F59D4240
:1038E00005D303FA02F5491B04FA02F52844151E14
:1038F000A2F10102F1DC30BD2DE9F05F05460020A8
:1039000092469B4688460646814640241BE0284650
:1039100041464746224600F053F953465A46C01ADC
:10392000914110D311461846224600F016F82D1A80
:1039300067EB01084F4622460120002100F00DF8F8
:1039400017EB00094E41201EA4F10104DFDC4846BC
:1039500031462A464346BDE8F09F202A04DB203A40
:1039600000FA02F1002070479140C2F1200320FAD2
:1039700003F3194390407047202A06DBCB17203A07
:1039800041FA02F043EAE07306E041FA02F3D04064
:10399000C2F12002914008431946704710B5141E29
:1039A00073F1000408DA401C41F1000192185B41F8
:1039B0001A4301D120F0010010BD2DE9F04D9246CF
:1039C0009B4611B1B1FA81F202E0B0FA80F22032E6
:1039D0009046FFF7C2FF04460F4640EA0A0041EA5C
:1039E0000B0153465A46084313D0114653EA0100CF
:1039F00019D0C8F14002504600F0E2F805460E46E4
:103A0000504659464246FFF7A8FF084305D001201B
:103A100004E020463946BDE8F08D0020054346EA23
:103A2000E0762C4337430A986305E40AA0EB0800CC
:103A30000022FD0A44EA47540A3002D5002001461C
:103A4000E9E7010510196941DDE9084500196941F7
:103A5000BDE8F04DA2E72DE9FE4F81EA030404F032
:103A6000004421F0004100944FF0000B23F000438C
:103A700050EA01045ED052EA03045BD0C3F30A5457
:103A8000C1F30A552C44A4F2F3340194A0FB025470
:103A9000C1F3130141F48011C3F3130343F4801302
:103AA00001FB024400FB034E840A970A44EA815456
:103AB00047EA8357A4FB076802958D0A05FB078533
:103AC0004FEA932C04FB0C542705029D4FEA06583D
:103AD00047EA1637B5EB08056EEB070C870E920E1A
:103AE00047EA811742EA8312A7FB0201B6EB0B01FA
:103AF00064EB00042B0D43EA0C335E1844EB1C50BE
:103B0000DA465146E7FB0201C5F313044FEA0B33D3
:103B100043EA14534FEA0432019C43EA0603A4F13A
:103B20000C040294009CCDE900B4FFF746FF03B0FB
:103B3000BDE8F08F00200146F9E7C1F30A52C1F356
:103B4000130140F2FF3341F480119A4202DA00205F
:103B50000146704740F233439A42A2F2334202DCFC
:103B6000524200F02DB8FFF7F8BE000030B5041E39
:103B700071F1000404DB4FF00044404264EB0101AA
:103B8000141E73F1000405DB1C464FF00043524243
:103B900063EB0403994208BF904230BD064C074DC9
:103BA00006E0E06840F0010394E80700984710340D
:103BB000AC42F6D3FCF7C0FA8C490008AC490008C7
:103BC000202A04DB203A21FA02F00021704721FA72
:103BD00002F3D040C2F120029140084319467047D9
:103BE00070B58C1810F8015B15F0070301D110F8BF
:103BF000013B2A1106D110F8012B03E010F8016BEC
:103C000001F8016B5B1EF9D12B0705D40023521E6E
:103C10000DD401F8013BFAE710F8013BCB1A921CD6
:103C200003E013F8015B01F8015B521EF9D5A142D4
:103C3000D8D3002070BD00000FB4054B10B503A908
:103C4000044A029800F0F2F810BC5DF814FB000082
:103C5000BB030008240100200FB41CB5024600205D
:103C600007AC00290BD0491ECDE90021054B6A465F
:103C70002146069800F0DAF8009A002111701CBC69
:103C80005DF814FB5B45000802E008C8121F08C17C
:103C9000002AFAD170477047002001E001C1121FCD
:103CA000002AFBD1704700002DE9FF5F82B00021A0
:103CB000DDE90430020DDDF840B0034318D044F6CE
:103CC0001050A2F2FF3242431514119801281FD060
:103CD000A5EB0B00401C5FEA000A4FF000064E4FB8
:103CE000DFF83891B046504615D5CAF1000413E00C
:103CF000119801244AA3012801D16FEA0B0102980F
:103D0000119AC0E90031C0E9024206B0BDE8F09F57
:103D1000CBF10000DFE704460021404A491842EB9E
:103D20000450CDE9001012E0E00707D032463B46D0
:103D300040464946FFF78FFE8046894632463B465D
:103D400010461946FFF787FE06460F466410002C02
:103D5000EAD1DDE90401DDE90023BAF1000F06DA5A
:103D6000FFF779FE42464B46FFF775FE05E0FFF789
:103D700012FD42464B46FFF70EFD04460E4600225A
:103D8000284BFFF7F3FE03D84FF0FF30014607E062
:103D90000022254B20463146FFF756FCFFF7CDFEAB
:103DA000102409E0002C0ADB0A220023FFF7A4FDFF
:103DB000039B30321A55641E50EA0102F2D1641C92
:103DC000039AC4F111031444119A012A03D0012269
:103DD00008430DD10AE0084304D000204FF0110B36
:103DE000119072E7A3EB0B056D1E0DE05B4504DD42
:103DF0004FF0000205F1010504E003DA4FF0000284
:103E0000A5F10105002AECD002981199C0E9023110
:103E1000C0E9004579E70000000014400000F03FD1
:103E2000300000000000F0430000E03F2DE9FF4FAC
:103E300095B09B468946064600250FE2252877D196
:103E400000242746F84A0121059400E0044316F8AF
:103E5000013F203B01FA03F01042F7D130782A28C5
:103E600011D06FF02F033078A0F13002092A16D854
:103E7000059A44F0020402EB820203EB4202104472
:103E8000761C0590EFE759F8042B0592002A03DA17
:103E9000504244F40054059044F00204761C3078FB
:103EA0002E2816D116F8010F44F004042A280DD04C
:103EB0006FF02F023078A0F13003092B09D807EBFF
:103EC000870302EB4303C718761CF3E759F8047B1A
:103ED000761C30786C280FD006DC4C2817D0682868
:103EE0000DD06A2814D104E0742810D07A280FD19C
:103EF0000DE044F400140AE044F4801401E044F4BA
:103F000040147278824202D104F58014761C761C2B
:103F1000307866280BD013DC582877D009DC0028CD
:103F200075D04528F6D04628F4D047281AD19DE10F
:103F300018E0632835D0642879D0652812D195E13E
:103F4000702873D008DC6728F1D069286FD06E28FC
:103F50000DD06F2806D1B5E073282CD0752875D008
:103F6000782874D05A46179990476D1C75E1C4F3B0
:103F70000250022809D003280DD0D9F800100428D7
:103F80000DD00D6009F1040967E1D9F80010EA17B6
:103F9000C1E90052F6E7D9F800100D80F2E70D7084
:103FA000F0E719F8041B8DF8001000208DF80100CF
:103FB000EA46012003E059F804AB4FF0FF306107F7
:103FC0004FF0000102D40DE008F101018846B9422A
:103FD0000FDA8045F8DB1AF808100029F4D108E060
:103FE00008F1010188468142FADB1AF8081000291D
:103FF000F6D105985B46A0EB080721463846179A8C
:1040000000F094FA284400EB080507E04DE029E1B0
:104010000DE01AF8010B5A4617999047B8F10108BC
:10402000F7D25B4621463846179A13E142E00A224E
:104030000092C4F302524FF0000A022A08D059F845
:1040400004CB032A4FEAEC710AD00DE029E02AE004
:1040500009F1070121F00702F2E802C1914609E0E7
:104060000FFA8CFC4FEAEC71042A03D14FFA8CFC56
:104070004FEAEC71002907DA0A460021DCF1000C56
:1040800061EB02012D2202E0220504D52B228DF8DE
:104090000420012203E0E20701D02022F7E7904646
:1040A00059E00A2102E010220DE010214FF0000A31
:1040B00000910BE010224FF0000A44F0040408279E
:1040C000009203E008224FF0000A0092C4F302526B
:1040D000022A05D059F804CB0021032A08D009E0B0
:1040E00009F1070121F00702F2E802C1914605E05B
:1040F0001FFA8CFC042A01D10CF0FF0C4FF00008D1
:10410000220728D5702806D0009B83F0100353EABD
:104110000A0305D00EE040228DF80420012208E0B9
:104120005CEA010206D030228DF804208DF80500EB
:1041300002229046009B83F0080353EA0A030AD147
:104140005CEA010201D1620705D530228DF8042016
:104150004FF001087F1E582804D034A003900EA809
:1041600002900DE036A0F9E753466046009AFFF74B
:10417000C3FB84460398825C0298401E0290027042
:104180005CEA0100F0D1029806A9081A00F1200AA1
:10419000600702D524F4803400E00127574502DD92
:1041A000A7EB0A0000E0002000EB0A010090059850
:1041B0004144401A0590E00306D45B462146179A15
:1041C000059800F0B3F90544002706E001A85A4617
:1041D000C05D179990476D1C7F1C4745F6DBE003D7
:1041E0000CD55B462146179A059800F09FF90544C7
:1041F00004E030205A46179990476D1C0099481EDC
:1042000000900029F5DC08E0029802995A460078EF
:10421000491C0291179990476D1CBAF10001AAF14F
:10422000010AF1DC65E10000092801003031323378
:1042300034353637383961626364656600000000E2
:1042400030313233343536373839414243444546CC
:104250000000000000F058F90544761C3078002872
:104260007FF4ECAD19B02846BDE8F08F620700D4AA
:10427000062709F1070222F0070CFCE80223E146B9
:1042800003F000485FEA080C02D00FF2702C0DE03A
:104290005FEA045C02D50FF2682C07E05FEAC47C99
:1042A00002D00FF2602C01E0AFF2700C4FF0FF383B
:1042B00023F00043CDF850C065280CD006DC45281B
:1042C00009D046281DD047283DD13DE0662818D0AA
:1042D00067287ED138E00021112F01DB112000E09A
:1042E000781CCDE9000106A90EA8FFF7DDFCDDE989
:1042F0000F010E9A03910021009207F1010A049127
:104300004DE04FF000400097CDE9011006A90EA83E
:10431000FFF7CAFCDDE90F0203920E9B1199002200
:10432000DDF80CA00093049211B9791C00EB010A8E
:10433000B7EB0A0004D4C0F1FF3007F1010A049082
:10434000AAEB0700019044E0012F00DA01270021C9
:10435000112F01DD112000E03846CDE9000106A94A
:104360000EA8FFF7A1FCDDE90F010E9A03910021D1
:1043700004910092BA4621070CD40399514500DA02
:104380008A46BAF1010F05DD009AAAF10101515CDC
:10439000302908D0B84202DA10F1040F06DA012100
:1043A000CDE9011015E0AAF10101E9E7002805DCDB
:1043B000049901440491AAEB000102E0411C51451B
:1043C00000DD8A460499401A401C01904FF00040DD
:1043D0000290200704D40198504501DBCDF80480F9
:1043E00000208DF84F0002980DF14F07B0F1004FFB
:1043F00025D02B200E9002984FF0020800280CDAEE
:10440000404202902D200E9007E00A210298FFF70B
:104410005DFA3031029007F8011DB8F10001A8F1F2
:104420000108F2DC02980028EFD1791E0E9808707E
:10443000307800F0200040F0450007F8020D12A887
:10444000C01B00F107081498007800B1012000EBB0
:104450000A01019801EBE07105984144401A401EA1
:104460000590E00306D45B462146179A059800F0B4
:104470005DF805441498007818B15A46179990478A
:104480006D1CE00324D55B462146179A059800F081
:104490004DF805441CE00498002807DBDDE9030122
:1044A000884203DD0098405C179901E0179930209D
:1044B0005A469047049805F10105401C0490019864
:1044C000401E019004D12E205A46179990476D1C2A
:1044D000BAF10001AAF1010ADDDC05E017F8010BD1
:1044E0005A46179990476D1CB8F10001A8F10108D0
:1044F000F4DC5B462146179A0598ABE62D000000D8
:104500002B000000200000002DE9F04104460025AA
:104510001E461746880404D405E039462020B047DB
:104520006D1C641EF9D52846BDE8F0812DE9F041E7
:10453000044600251E469046C80301D5302700E0FA
:104540002027880404D505E041463846B0476D1C55
:10455000641EF9D52846BDE8F0814A68002A06D0D5
:104560000A68531C0B6010704868401E4860704712
:1045700010B5002821D0114B0022001F196803E05C
:10458000814203D80A4649680029F9D152B113681B
:10459000841A9C4204D1006818441060104602E05E
:1045A000506000E0186039B102680B1A934203D1E1
:1045B0000B681A4402604968416010BD2C0100205C
:1045C000F0B50B30154D20F007010024144A0FE020
:1045D00003688B420BD38B4205D95E1A4318476898
:1045E000C3E9006700E04368136002C004E0021DF5
:1045F00010680028ECD12046002802D1286808B1B4
:104600000020F0BD064A07481060074A121A22F03F
:104610000702C0E9002401202860D7E7300100200C
:104620002C0100209C010020980900202600000099
:10463000744900083E0000007C4900083C0000006E
:1046400084490008004040404040404040404141D3
:104650004141414040404040404040404040404057
:1046600040404040400502020202020202020202F1
:1046700002020202022020202020202020202002EE
:10468000020202020202909090909090101010107E
:10469000101010101010101010101010101010101A
:1046A00002020202020288888888888808080808AE
:1046B000080808080808080808080808080808087A
:1046C000020202024000000045460008537569746A
:1046D00065206E616D652063616E6E6F742062652A
:1046E000204E554C4C2E000054657374206E616D45
:1046F000652063616E6E6F74206265204E554C4C70
:104700002E0000004D656D6F727920616C6C6F63D7
:104710006174696F6E206661696C65642E000000CB
:10472000537569746520696E697469616C697A6131
:1047300074696F6E2066756E6374696F6E20666152
:10474000696C65642E000000537569746520636CA4
:1047500065616E75702066756E6374696F6E206634
:1047600061696C65642E0000537569746520686129
:1047700076696E67206E616D6520616C726561643B
:104780007920726567697374657265642E00000034
:104790004E554C4C207375697465206E6F742061A2
:1047A0006C6C6F7765642E004E554C4C20746573AD
:1047B00074206F7220746573742066756E637469FB
:1047C0006F6E206E6F7420616C6C6F7765642E0065
:1047D0004572726F72206F70656E696E67206669D0
:1047E0006C652E004572726F7220636C6F73696E18
:1047F000672066696C652E004572726F7220647561
:1048000072696E6720777269746520746F206669BB
:104810006C652E004261642066696C65206E616D76
:10482000652E000054657374206E6F742072656786
:104830006973746572656420696E2073706563695D
:10484000666965642073756974652E0054657374B8
:1048500020686176696E672074686973206E616D87
:104860006520616C726561647920696E2073756979
:1048700074652E0052657175657374656420737577
:10488000697465206973206E6F7420616374697642
:10489000652E00004E6F204572726F722E00000070
:1048A000526567697374727920616C7265616479AD
:1048B000206578697374732E00000000546573746A
:1048C00020726567697374727920646F6573206EF6
:1048D0006F742065786973742E00000052657175DD
:1048E00065737465642074657374206973206E6FDA
:1048F000742061637469766500000000556E64651C
:1049000066696E6564204572726F7200252A732590
:104910002A73252A73252A73252A73252A73252AA3
:10492000730A252A73252A73252A75252A75252AAF
:1049300073252A75252A750A252A73252A73252A9F
:1049400075252A75252A75252A75252A750A252A89
:1049500073252A73252A75252A75252A75252A7512
:10496000252A730A0A252A7325382E3366252A73C9
:104970000000000026616D703B0000002667743B5C
:1049800000000000266C743B00000000AC490008E9
:104990000000002034010000E03B0008144A000839
:1049A0003401002064100000983C0008412D0102F1
:1049B0000304041009060708090204060884A24A31
:1049C000046918C1139448140804470C1C08704962
:1049D000041ABC281AA004091E281A904C13CC46AD
:1049E0001B0820081A48041A68040A1174381AA807
:1049F000181AE8281A4C1C1A24040A15DC5C1AD070
:104A0000281AE4041A14201AF8081AFC08011802DB
:044A1000330100006E
:0400000508000131BD
:00000001FF
